{
  "contractName": "KryptoBird",
  "abi": [
    {
      "inputs": [],
      "stateMutability": "nonpayable",
      "type": "constructor"
    },
    {
      "anonymous": false,
      "inputs": [
        {
          "indexed": true,
          "internalType": "address",
          "name": "_owner",
          "type": "address"
        },
        {
          "indexed": true,
          "internalType": "address",
          "name": "_approved",
          "type": "address"
        },
        {
          "indexed": true,
          "internalType": "uint256",
          "name": "_tokenId",
          "type": "uint256"
        }
      ],
      "name": "Approval",
      "type": "event"
    },
    {
      "anonymous": false,
      "inputs": [
        {
          "indexed": true,
          "internalType": "address",
          "name": "_from",
          "type": "address"
        },
        {
          "indexed": true,
          "internalType": "address",
          "name": "_to",
          "type": "address"
        },
        {
          "indexed": true,
          "internalType": "uint256",
          "name": "_tokenId",
          "type": "uint256"
        }
      ],
      "name": "Transfer",
      "type": "event"
    },
    {
      "inputs": [
        {
          "internalType": "address",
          "name": "_to",
          "type": "address"
        },
        {
          "internalType": "uint256",
          "name": "_tokenId",
          "type": "uint256"
        }
      ],
      "name": "approve",
      "outputs": [],
      "stateMutability": "nonpayable",
      "type": "function"
    },
    {
      "inputs": [
        {
          "internalType": "address",
          "name": "_owner",
          "type": "address"
        }
      ],
      "name": "balanceOf",
      "outputs": [
        {
          "internalType": "uint256",
          "name": "",
          "type": "uint256"
        }
      ],
      "stateMutability": "view",
      "type": "function",
      "constant": true
    },
    {
      "inputs": [
        {
          "internalType": "uint256",
          "name": "",
          "type": "uint256"
        }
      ],
      "name": "kryptoBirdz",
      "outputs": [
        {
          "internalType": "string",
          "name": "",
          "type": "string"
        }
      ],
      "stateMutability": "view",
      "type": "function",
      "constant": true
    },
    {
      "inputs": [],
      "name": "name",
      "outputs": [
        {
          "internalType": "string",
          "name": "",
          "type": "string"
        }
      ],
      "stateMutability": "view",
      "type": "function",
      "constant": true
    },
    {
      "inputs": [
        {
          "internalType": "uint256",
          "name": "_tokenId",
          "type": "uint256"
        }
      ],
      "name": "ownerOf",
      "outputs": [
        {
          "internalType": "address",
          "name": "",
          "type": "address"
        }
      ],
      "stateMutability": "view",
      "type": "function",
      "constant": true
    },
    {
      "inputs": [
        {
          "internalType": "bytes4",
          "name": "interfaceID",
          "type": "bytes4"
        }
      ],
      "name": "supportsInterface",
      "outputs": [
        {
          "internalType": "bool",
          "name": "",
          "type": "bool"
        }
      ],
      "stateMutability": "view",
      "type": "function",
      "constant": true
    },
    {
      "inputs": [],
      "name": "symbol",
      "outputs": [
        {
          "internalType": "string",
          "name": "",
          "type": "string"
        }
      ],
      "stateMutability": "view",
      "type": "function",
      "constant": true
    },
    {
      "inputs": [
        {
          "internalType": "uint256",
          "name": "_index",
          "type": "uint256"
        }
      ],
      "name": "tokenByIndex",
      "outputs": [
        {
          "internalType": "uint256",
          "name": "",
          "type": "uint256"
        }
      ],
      "stateMutability": "view",
      "type": "function",
      "constant": true
    },
    {
      "inputs": [
        {
          "internalType": "address",
          "name": "_owner",
          "type": "address"
        },
        {
          "internalType": "uint256",
          "name": "_index",
          "type": "uint256"
        }
      ],
      "name": "tokenOfOwnerByIndex",
      "outputs": [
        {
          "internalType": "uint256",
          "name": "",
          "type": "uint256"
        }
      ],
      "stateMutability": "view",
      "type": "function",
      "constant": true
    },
    {
      "inputs": [],
      "name": "totalSupply",
      "outputs": [
        {
          "internalType": "uint256",
          "name": "",
          "type": "uint256"
        }
      ],
      "stateMutability": "view",
      "type": "function",
      "constant": true
    },
    {
      "inputs": [
        {
          "internalType": "address",
          "name": "_from",
          "type": "address"
        },
        {
          "internalType": "address",
          "name": "_to",
          "type": "address"
        },
        {
          "internalType": "uint256",
          "name": "_tokenId",
          "type": "uint256"
        }
      ],
      "name": "transferFrom",
      "outputs": [],
      "stateMutability": "nonpayable",
      "type": "function"
    },
    {
      "inputs": [],
      "name": "getKryptoArr",
      "outputs": [
        {
          "internalType": "string[]",
          "name": "",
          "type": "string[]"
        }
      ],
      "stateMutability": "view",
      "type": "function",
      "constant": true
    },
    {
      "inputs": [
        {
          "internalType": "string",
          "name": "kryptobird",
          "type": "string"
        }
      ],
      "name": "mint",
      "outputs": [],
      "stateMutability": "nonpayable",
      "type": "function"
    }
  ],
  "bytecode": "0x60806040523480156200001157600080fd5b506040518060400160405280600a81526020017f4b727970746f42697264000000000000000000000000000000000000000000008152506040518060400160405280600681526020017f4b424952445a00000000000000000000000000000000000000000000000000008152508181620000b17f01ffc9a7a5cef8baa21ed3c5c0d7e23accb804b619e9333b597f47a0d84076e26200022a60201b60201c565b620001047f13b182f4c0e5b2efbac0efe6cf6d756c8b89f4b79c5707a043ed9ea740574ee97f7feaf19471f34a12a7eaf32d5f3090aa2260ea8624dc8a138e74e0bf0f623076186200022a60201b60201c565b81600190805190602001906200011c92919062000301565b5080600290805190602001906200013592919062000301565b505050620001ad7f22c82707ba960a14c7592ffb6b8cfaa073fed0048a84cc7fa41f6b5bd8e7f2e47f3a6eb71757dfc6e784c1459d26270140c2c147d95ca985c80026fc5301c3eca17f8a7e378434598edc36d108689a030cbc9d7d465de4f74c71bae1028eed6a881b18186200022a60201b60201c565b620002227f8230223f691b981717299fae9549350a0d894555723531f02108b1f522c1a7977f6da5e1284143cdd2d15038a59bde3be031250f00291d64494c12d967b3a4e0c37fc53637662700e6c65104059db8bba34439e0c32483ab7c34e3ccae52c739549518186200022a60201b60201c565b505062000498565b63ffffffff60e01b817bffffffffffffffffffffffffffffffffffffffffffffffffffffffff19160362000295576040517f08c379a00000000000000000000000000000000000000000000000000000000081526004016200028c9062000412565b60405180910390fd5b6001600080837bffffffffffffffffffffffffffffffffffffffffffffffffffffffff19167bffffffffffffffffffffffffffffffffffffffffffffffffffffffff1916815260200190815260200160002060006101000a81548160ff02191690831515021790555050565b8280546200030f9062000463565b90600052602060002090601f0160209004810192826200033357600085556200037f565b82601f106200034e57805160ff19168380011785556200037f565b828001600101855582156200037f579182015b828111156200037e57825182559160200191906001019062000361565b5b5090506200038e919062000392565b5090565b5b80821115620003ad57600081600090555060010162000393565b5090565b600082825260208201905092915050565b7f496e76616c696420696e74657266616365207265717565737400000000000000600082015250565b6000620003fa601983620003b1565b91506200040782620003c2565b602082019050919050565b600060208201905081810360008301526200042d81620003eb565b9050919050565b7f4e487b7100000000000000000000000000000000000000000000000000000000600052602260045260246000fd5b600060028204905060018216806200047c57607f821691505b60208210810362000492576200049162000434565b5b50919050565b611e6b80620004a86000396000f3fe608060405234801561001057600080fd5b50600436106100cf5760003560e01c80634f6ccce71161008c57806370a082311161006657806370a082311461022657806393ab6e561461025657806395d89b4114610286578063d85d3d27146102a4576100cf565b80634f6ccce7146101a857806359aed479146101d85780636352211e146101f6576100cf565b806301ffc9a7146100d457806306fdde0314610104578063095ea7b31461012257806318160ddd1461013e57806323b872dd1461015c5780632f745c5914610178575b600080fd5b6100ee60048036038101906100e99190611277565b6102c0565b6040516100fb91906112bf565b60405180910390f35b61010c610327565b6040516101199190611373565b60405180910390f35b61013c60048036038101906101379190611429565b6103b9565b005b610146610502565b6040516101539190611478565b60405180910390f35b61017660048036038101906101719190611493565b61050f565b005b610192600480360381019061018d9190611429565b610532565b60405161019f9190611478565b60405180910390f35b6101c260048036038101906101bd91906114e6565b6105bd565b6040516101cf9190611478565b60405180910390f35b6101e061063a565b6040516101ed919061161f565b60405180910390f35b610210600480360381019061020b91906114e6565b610713565b60405161021d9190611650565b60405180910390f35b610240600480360381019061023b919061166b565b61078e565b60405161024d9190611478565b60405180910390f35b610270600480360381019061026b91906114e6565b610845565b60405161027d9190611373565b60405180910390f35b61028e6108f1565b60405161029b9190611373565b60405180910390f35b6102be60048036038101906102b991906117cd565b610983565b005b6000806000837bffffffffffffffffffffffffffffffffffffffffffffffffffffffff19167bffffffffffffffffffffffffffffffffffffffffffffffffffffffff1916815260200190815260200160002060009054906101000a900460ff169050919050565b60606001805461033690611845565b80601f016020809104026020016040519081016040528092919081815260200182805461036290611845565b80156103af5780601f10610384576101008083540402835291602001916103af565b820191906000526020600020905b81548152906001019060200180831161039257829003601f168201915b5050505050905090565b60006103c482610713565b90508073ffffffffffffffffffffffffffffffffffffffff168373ffffffffffffffffffffffffffffffffffffffff1603610434576040517f08c379a000000000000000000000000000000000000000000000000000000000815260040161042b906118c2565b60405180910390fd5b8073ffffffffffffffffffffffffffffffffffffffff163373ffffffffffffffffffffffffffffffffffffffff16146104a2576040517f08c379a00000000000000000000000000000000000000000000000000000000081526004016104999061192e565b60405180910390fd5b818373ffffffffffffffffffffffffffffffffffffffff168273ffffffffffffffffffffffffffffffffffffffff167f8c5be1e5ebec7d5bd14f71427d1e84f3dd0314c0f7b2291e5b200ac8c7c3b92560405160405180910390a4505050565b6000600680549050905090565b6105193382610a86565b61052257600080fd5b61052d838383610b15565b505050565b60008061053e8461078e565b9050828111801561054f5750600083115b61055857600080fd5b600860008573ffffffffffffffffffffffffffffffffffffffff1673ffffffffffffffffffffffffffffffffffffffff16815260200190815260200160002083815481106105a9576105a861194e565b5b906000526020600020015491505092915050565b6000816105c8610502565b1180156105d55750600082115b610614576040517f08c379a000000000000000000000000000000000000000000000000000000000815260040161060b906119c9565b60405180910390fd5b600682815481106106285761062761194e565b5b90600052602060002001549050919050565b6060600a805480602002602001604051908101604052809291908181526020016000905b8282101561070a57838290600052602060002001805461067d90611845565b80601f01602080910402602001604051908101604052809291908181526020018280546106a990611845565b80156106f65780601f106106cb576101008083540402835291602001916106f6565b820191906000526020600020905b8154815290600101906020018083116106d957829003601f168201915b50505050508152602001906001019061065e565b50505050905090565b6000806003600084815260200190815260200160002060009054906101000a900473ffffffffffffffffffffffffffffffffffffffff169050600073ffffffffffffffffffffffffffffffffffffffff168173ffffffffffffffffffffffffffffffffffffffff160361078557600080fd5b80915050919050565b60008073ffffffffffffffffffffffffffffffffffffffff168273ffffffffffffffffffffffffffffffffffffffff16036107fe576040517f08c379a00000000000000000000000000000000000000000000000000000000081526004016107f590611a35565b60405180910390fd5b600460008373ffffffffffffffffffffffffffffffffffffffff1673ffffffffffffffffffffffffffffffffffffffff168152602001908152602001600020549050919050565b600a818154811061085557600080fd5b90600052602060002001600091509050805461087090611845565b80601f016020809104026020016040519081016040528092919081815260200182805461089c90611845565b80156108e95780601f106108be576101008083540402835291602001916108e9565b820191906000526020600020905b8154815290600101906020018083116108cc57829003601f168201915b505050505081565b60606002805461090090611845565b80601f016020809104026020016040519081016040528092919081815260200182805461092c90611845565b80156109795780601f1061094e57610100808354040283529160200191610979565b820191906000526020600020905b81548152906001019060200180831161095c57829003601f168201915b5050505050905090565b600b816040516109939190611a91565b908152602001604051809103902060009054906101000a900460ff16156109ef576040517f08c379a00000000000000000000000000000000000000000000000000000000081526004016109e690611b1a565b60405180910390fd5b600a81908060018154018082558091505060019003906000526020600020016000909190919091509080519060200190610a2a929190611116565b5060006001600a80549050610a3f9190611b69565b9050610a4b3382610d60565b6001600b83604051610a5d9190611a91565b908152602001604051809103902060006101000a81548160ff0219169083151502179055505050565b6000610a9182610d81565b610ad0576040517f08c379a0000000000000000000000000000000000000000000000000000000008152600401610ac790611be9565b60405180910390fd5b6000610adb83610713565b90508073ffffffffffffffffffffffffffffffffffffffff168473ffffffffffffffffffffffffffffffffffffffff161491505092915050565b600073ffffffffffffffffffffffffffffffffffffffff168373ffffffffffffffffffffffffffffffffffffffff1603610b84576040517f08c379a0000000000000000000000000000000000000000000000000000000008152600401610b7b90611c55565b60405180910390fd5b6000610b8f82610713565b90508373ffffffffffffffffffffffffffffffffffffffff168173ffffffffffffffffffffffffffffffffffffffff1614610bff576040517f08c379a0000000000000000000000000000000000000000000000000000000008152600401610bf690611cc1565b60405180910390fd5b826003600084815260200190815260200160002060006101000a81548173ffffffffffffffffffffffffffffffffffffffff021916908373ffffffffffffffffffffffffffffffffffffffff1602179055506001600460008673ffffffffffffffffffffffffffffffffffffffff1673ffffffffffffffffffffffffffffffffffffffff1681526020019081526020016000206000828254610ca19190611b69565b925050819055506001600460008573ffffffffffffffffffffffffffffffffffffffff1673ffffffffffffffffffffffffffffffffffffffff1681526020019081526020016000206000828254610cf89190611ce1565b92505081905550818373ffffffffffffffffffffffffffffffffffffffff168573ffffffffffffffffffffffffffffffffffffffff167fddf252ad1be2c89b69c2b068fc378daa952ba7f163c4a11628f55a4df523b3ef60405160405180910390a450505050565b610d6981610df3565b610d738183610e3c565b610d7d8282610f17565b5050565b6000806003600084815260200190815260200160002060009054906101000a900473ffffffffffffffffffffffffffffffffffffffff169050600073ffffffffffffffffffffffffffffffffffffffff168173ffffffffffffffffffffffffffffffffffffffff161415915050919050565b6006805490506007600083815260200190815260200160002081905550600681908060018154018082558091505060019003906000526020600020016000909190919091505550565b6000600860008373ffffffffffffffffffffffffffffffffffffffff1673ffffffffffffffffffffffffffffffffffffffff1681526020019081526020016000209050808054905060096000858152602001908152602001600020819055508083908060018154018082558091505060019003906000526020600020016000909190919091505580600860008473ffffffffffffffffffffffffffffffffffffffff1673ffffffffffffffffffffffffffffffffffffffff168152602001908152602001600020908054610f1192919061119c565b50505050565b600073ffffffffffffffffffffffffffffffffffffffff168273ffffffffffffffffffffffffffffffffffffffff1603610f86576040517f08c379a0000000000000000000000000000000000000000000000000000000008152600401610f7d90611da9565b60405180910390fd5b610f8f81610d81565b15610fcf576040517f08c379a0000000000000000000000000000000000000000000000000000000008152600401610fc690611e15565b60405180910390fd5b816003600083815260200190815260200160002060006101000a81548173ffffffffffffffffffffffffffffffffffffffff021916908373ffffffffffffffffffffffffffffffffffffffff1602179055506000600460008473ffffffffffffffffffffffffffffffffffffffff1673ffffffffffffffffffffffffffffffffffffffff1681526020019081526020016000205490506001816110729190611ce1565b600460008573ffffffffffffffffffffffffffffffffffffffff1673ffffffffffffffffffffffffffffffffffffffff16815260200190815260200160002081905550818373ffffffffffffffffffffffffffffffffffffffff16600073ffffffffffffffffffffffffffffffffffffffff167fddf252ad1be2c89b69c2b068fc378daa952ba7f163c4a11628f55a4df523b3ef60405160405180910390a4505050565b82805461112290611845565b90600052602060002090601f016020900481019282611144576000855561118b565b82601f1061115d57805160ff191683800117855561118b565b8280016001018555821561118b579182015b8281111561118a57825182559160200191906001019061116f565b5b50905061119891906111ee565b5090565b8280548282559060005260206000209081019282156111dd5760005260206000209182015b828111156111dc5782548255916001019190600101906111c1565b5b5090506111ea91906111ee565b5090565b5b808211156112075760008160009055506001016111ef565b5090565b6000604051905090565b600080fd5b600080fd5b60007fffffffff0000000000000000000000000000000000000000000000000000000082169050919050565b6112548161121f565b811461125f57600080fd5b50565b6000813590506112718161124b565b92915050565b60006020828403121561128d5761128c611215565b5b600061129b84828501611262565b91505092915050565b60008115159050919050565b6112b9816112a4565b82525050565b60006020820190506112d460008301846112b0565b92915050565b600081519050919050565b600082825260208201905092915050565b60005b838110156113145780820151818401526020810190506112f9565b83811115611323576000848401525b50505050565b6000601f19601f8301169050919050565b6000611345826112da565b61134f81856112e5565b935061135f8185602086016112f6565b61136881611329565b840191505092915050565b6000602082019050818103600083015261138d818461133a565b905092915050565b600073ffffffffffffffffffffffffffffffffffffffff82169050919050565b60006113c082611395565b9050919050565b6113d0816113b5565b81146113db57600080fd5b50565b6000813590506113ed816113c7565b92915050565b6000819050919050565b611406816113f3565b811461141157600080fd5b50565b600081359050611423816113fd565b92915050565b600080604083850312156114405761143f611215565b5b600061144e858286016113de565b925050602061145f85828601611414565b9150509250929050565b611472816113f3565b82525050565b600060208201905061148d6000830184611469565b92915050565b6000806000606084860312156114ac576114ab611215565b5b60006114ba868287016113de565b93505060206114cb868287016113de565b92505060406114dc86828701611414565b9150509250925092565b6000602082840312156114fc576114fb611215565b5b600061150a84828501611414565b91505092915050565b600081519050919050565b600082825260208201905092915050565b6000819050602082019050919050565b600082825260208201905092915050565b600061155b826112da565b611565818561153f565b93506115758185602086016112f6565b61157e81611329565b840191505092915050565b60006115958383611550565b905092915050565b6000602082019050919050565b60006115b582611513565b6115bf818561151e565b9350836020820285016115d18561152f565b8060005b8581101561160d57848403895281516115ee8582611589565b94506115f98361159d565b925060208a019950506001810190506115d5565b50829750879550505050505092915050565b6000602082019050818103600083015261163981846115aa565b905092915050565b61164a816113b5565b82525050565b60006020820190506116656000830184611641565b92915050565b60006020828403121561168157611680611215565b5b600061168f848285016113de565b91505092915050565b600080fd5b600080fd5b7f4e487b7100000000000000000000000000000000000000000000000000000000600052604160045260246000fd5b6116da82611329565b810181811067ffffffffffffffff821117156116f9576116f86116a2565b5b80604052505050565b600061170c61120b565b905061171882826116d1565b919050565b600067ffffffffffffffff821115611738576117376116a2565b5b61174182611329565b9050602081019050919050565b82818337600083830152505050565b600061177061176b8461171d565b611702565b90508281526020810184848401111561178c5761178b61169d565b5b61179784828561174e565b509392505050565b600082601f8301126117b4576117b3611698565b5b81356117c484826020860161175d565b91505092915050565b6000602082840312156117e3576117e2611215565b5b600082013567ffffffffffffffff8111156118015761180061121a565b5b61180d8482850161179f565b91505092915050565b7f4e487b7100000000000000000000000000000000000000000000000000000000600052602260045260246000fd5b6000600282049050600182168061185d57607f821691505b6020821081036118705761186f611816565b5b50919050565b7f596f752063616e7420617070726f766520796f75722061646472657373000000600082015250565b60006118ac601d836112e5565b91506118b782611876565b602082019050919050565b600060208201905081810360008301526118db8161189f565b9050919050565b7f596f7520617265206e6f7420746865206f776e65720000000000000000000000600082015250565b60006119186015836112e5565b9150611923826118e2565b602082019050919050565b600060208201905081810360008301526119478161190b565b9050919050565b7f4e487b7100000000000000000000000000000000000000000000000000000000600052603260045260246000fd5b7f496e646578206f7574206f6620626f756e647300000000000000000000000000600082015250565b60006119b36013836112e5565b91506119be8261197d565b602082019050919050565b600060208201905081810360008301526119e2816119a6565b9050919050565b7f4f776e65722073686f756c646e74206265206865726500000000000000000000600082015250565b6000611a1f6016836112e5565b9150611a2a826119e9565b602082019050919050565b60006020820190508181036000830152611a4e81611a12565b9050919050565b600081905092915050565b6000611a6b826112da565b611a758185611a55565b9350611a858185602086016112f6565b80840191505092915050565b6000611a9d8284611a60565b915081905092915050565b7f4572726f722c20746865206b797270746f6269726420616c726561647920657860008201527f6973740000000000000000000000000000000000000000000000000000000000602082015250565b6000611b046023836112e5565b9150611b0f82611aa8565b604082019050919050565b60006020820190508181036000830152611b3381611af7565b9050919050565b7f4e487b7100000000000000000000000000000000000000000000000000000000600052601160045260246000fd5b6000611b74826113f3565b9150611b7f836113f3565b925082821015611b9257611b91611b3a565b5b828203905092915050565b7f746f6b656e20646f65736e6f7420657869737400000000000000000000000000600082015250565b6000611bd36013836112e5565b9150611bde82611b9d565b602082019050919050565b60006020820190508181036000830152611c0281611bc6565b9050919050565b7f496e76616c6964207472616e7366657220616464726573730000000000000000600082015250565b6000611c3f6018836112e5565b9150611c4a82611c09565b602082019050919050565b60006020820190508181036000830152611c6e81611c32565b9050919050565b7f4f776e657220646f65736e74206861766520746865204e465400000000000000600082015250565b6000611cab6019836112e5565b9150611cb682611c75565b602082019050919050565b60006020820190508181036000830152611cda81611c9e565b9050919050565b6000611cec826113f3565b9150611cf7836113f3565b9250827fffffffffffffffffffffffffffffffffffffffffffffffffffffffffffffffff03821115611d2c57611d2b611b3a565b5b828201905092915050565b7f455243373231203a206d696e74696e6720746f20746865207a65726f2061646460008201527f7265737300000000000000000000000000000000000000000000000000000000602082015250565b6000611d936024836112e5565b9150611d9e82611d37565b604082019050919050565b60006020820190508181036000830152611dc281611d86565b9050919050565b7f4552433732313a20746f6b656e20616c7265616479206d696e74656400000000600082015250565b6000611dff601c836112e5565b9150611e0a82611dc9565b602082019050919050565b60006020820190508181036000830152611e2e81611df2565b905091905056fea26469706673582212209e7281e1a61e787b20ca6f47e344c139544082c82162d6c54832999d468406a464736f6c634300080e0033",
  "immutableReferences": {},
  "source": "// SPDX-License-Identifier: MIT\r\npragma solidity 0.8.14;\r\n\r\nimport './ERC721Connector.sol';\r\n\r\ncontract KryptoBird is ERC721Connector{\r\n\r\n    //array to store NFTs.\r\n    string[] public kryptoBirdz;\r\n    mapping (string => bool) kryptoExists;\r\n\r\n\r\n    function getKryptoArr() public view returns(string[] memory){\r\n\r\n        return kryptoBirdz;\r\n    }\r\n\r\n    function mint(string memory kryptobird) public{\r\n\r\n        require(!kryptoExists[kryptobird],\"Error, the kyrptobird already exist\");\r\n        \r\n        kryptoBirdz.push(kryptobird);\r\n        uint _id =kryptoBirdz.length-1;\r\n        _mint(msg.sender, _id);\r\n\r\n        kryptoExists[kryptobird] = true;\r\n\r\n    }\r\n\r\nconstructor() ERC721Connector('KryptoBird','KBIRDZ'){\r\n\r\n}\r\n    \r\n\r\n}",
  "sourcePath": "C:\\Users\\AnJaN\\Desktop\\others____\\courses\\solidity\\NFTmarketplace\\nft-marketplace-starter-kit\\src\\contracts\\KryptoBirdz.sol",
  "compiler": {
    "name": "solc",
    "version": "0.8.14+commit.80d49f37.Emscripten.clang"
  },
  "schemaVersion": "3.4.4",
  "updatedAt": "2022-06-09T06:19:02.020Z",
  "networkType": "ethereum",
  "devdoc": {
    "kind": "dev",
    "methods": {
      "supportsInterface(bytes4)": {
        "details": "Interface identification is specified in ERC-165. This function  uses less than 30,000 gas.",
        "params": {
          "interfaceID": "The interface identifier, as specified in ERC-165"
        },
        "returns": {
          "_0": "`true` if the contract implements `interfaceID` and  `interfaceID` is not 0xffffffff, `false` otherwise"
        }
      },
      "tokenByIndex(uint256)": {
        "details": "Throws if `_index` >= `totalSupply()`.",
        "params": {
          "_index": "A counter less than `totalSupply()`"
        },
        "returns": {
          "_0": "The token identifier for the `_index`th NFT,  (sort order not specified)"
        }
      },
      "tokenOfOwnerByIndex(address,uint256)": {
        "details": "Throws if `_index` >= `balanceOf(_owner)` or if  `_owner` is the zero address, representing invalid NFTs.",
        "params": {
          "_index": "A counter less than `balanceOf(_owner)`",
          "_owner": "An address where we are interested in NFTs owned by them"
        },
        "returns": {
          "_0": "The token identifier for the `_index`th NFT assigned to `_owner`,   (sort order not specified)"
        }
      },
      "totalSupply()": {
        "returns": {
          "_0": "A count of valid NFTs tracked by this contract, where each one of  them has an assigned and queryable owner not equal to the zero address"
        }
      }
    },
    "version": 1
  },
  "userdoc": {
    "kind": "user",
    "methods": {
      "name()": {
        "notice": "A descriptive name for a collection of NFTs in this contract"
      },
      "supportsInterface(bytes4)": {
        "notice": "Query if a contract implements an interface"
      },
      "symbol()": {
        "notice": "An abbreviated name for NFTs in this contract"
      },
      "tokenByIndex(uint256)": {
        "notice": "Enumerate valid NFTs"
      },
      "tokenOfOwnerByIndex(address,uint256)": {
        "notice": "Enumerate NFTs assigned to an owner"
      },
      "totalSupply()": {
        "notice": "Count NFTs tracked by this contract"
      }
    },
    "version": 1
  }
}